:10000000A3C00000C2C00000C0C000000C94CC1B04
:100010000C940E1C0C947E1C0C94C01CB6C00000EA
:10002000B4C00000B2C00000B0C00000AEC000000C
:10003000ACC00000AAC00000A8C00000A6C000001C
:10004000A4C00000A2C00000A0C000009EC000002C
:100050009CC000009AC0000098C0000096C000003C
:1000600094C0000092C0000090C000008EC000004C
:100070008CC000008AC0000088C0000086C000005C
:100080000C94301D82C0000080C000007EC00000C3
:100090007CC000007AC0000078C0000076C000007C
:1000A00074C0000072C0000070C000006EC000008C
:1000B0006CC000006AC0000068C000000C946508B5
:1000C00064C0000062C0000060C000005EC00000AC
:1000D0005CC000005AC0000058C0000056C00000BC
:1000E00054C000004F230F23CF238F230F244F240E
:1000F0008F2474276A27EE279227DA27F9277E278D
:100100008827672A5C282B29FA292A2A402AE427EB
:10011000AD2AB72AD22AEB2A032B6027332B412B97
:10012000852B922BB42BC62BE12BEF2B012C0B2C08
:10013000122C232A01280F281C283E284D28552838
:10014000192C212C282C452C11241FBECFEFD1E2D5
:10015000DEBFCDBF00E00CBF16E0A0E0B2E0E0EDF6
:10016000FDE101E00BBF02C007900D92AC3DB1076D
:10017000D9F729E0ACEDB6E001C01D92A031B2077D
:10018000E1F70E94B81F0C94E68E3ACF81E087B960
:100190001AB883B383BBEAE0F1E080818160808399
:1001A00084B1856084B988B1806C88B988B1806376
:1001B00088B988B18C6088B9419AA29AA09A5F9A4E
:1001C0009091DF0686E1989F802D1124825F8093B5
:1001D000B3008091DD06982F990F890F982F990F02
:1001E000990F890F875F88BD809104028093B400C6
:1001F0008091020287BD089586B186FB882780F929
:1002000091E08927089586B18095881F8827881FE7
:10021000089586B18295817091E08927089586B10D
:1002200085FB882780F991E08927089586B183FBB3
:10023000882780F991E08927089586B182FB882775
:1002400080F991E08927089586B18695817091E0C3
:100250008927089589B18095881F8827881F089568
:1002600082B382FB882780F991E08927089582B3C1
:100270008095817008958130B1F028F0823059F076
:100280008330D1F00895289A2A98EBE0F1E080813C
:100290008E7F808308952A9A2898EBE0F1E0808190
:1002A0008E7F8083089585B18A7F85B9EBE0F1E088
:1002B000808181608083089585B18A7F85B9EBE074
:1002C000F1E080818E7F80830895CF92DF92EF925C
:1002D000FF92CF93C82F8230D1F028F4882391F079
:1002E000813051F044C1843009F4AAC008F45BC0E5
:1002F000853009F4F1C03BC181E08093DC06409A6F
:1003000080E00AC21092DC06409880E005C280912D
:100310000102813021F580910002882371F09091D3
:10032000DF0686E1989F802D1124825F8093B300C1
:1003300086E090E01ED71092000286E090E037D76A
:100340006C3271408105910508F4C7C1409A109242
:10035000010281E08093000286E090E00AD780915C
:10036000B3008F3098F086E090E021D76F307105B0
:100370008105910508F4B3C1E3EBF0E08081815081
:10038000808386E090E0F5D681E0C6C11092E00659
:100390001092DF0681E0809301028091DC068111DA
:1003A000A0C14098B9C180910102813021F58091AE
:1003B0000002882371F09091DF0686E1989F802DDE
:1003C0001124825F8093B30086E090E0D2D6109231
:1003D000000286E090E0EBD66C3271408105910519
:1003E00008F481C1409A1092010281E080930002DA
:1003F00086E090E0BED68091B300843298F486E027
:1004000090E0D5D6643171058105910508F46DC180
:10041000E3EBF0E080818F5F808386E090E0A9D6F7
:1004200081E07AC181E090E09093E0068093DF065E
:10043000809301028091DC06811159C140986CC102
:1004400080910102813031F580910002882381F092
:100450008091DD06982F990F890F982F990F990F8A
:10046000890F875F88BD86E090E083D610920002F6
:1004700086E090E09CD66C3271408105910508F4CD
:1004800038C1409A1092010281E08093000286E018
:1004900090E06FD688B5883188F486E090E087D602
:1004A000643171058105910508F425C188B58F5F18
:1004B00088BD86E090E05DD681E02EC181E090E0CD
:1004C0009093DE068093DD06809301028091DC0626
:1004D000811113C1409820C180910102813031F512
:1004E00080910002882381F08091DD06982F990F7A
:1004F000890F982F990F990F890F875F88BD86E024
:1005000090E037D61092000286E090E050D66C3230
:1005100071408105910508F4F2C0409A10920102E1
:1005200081E08093000286E090E023D688B58A308F
:1005300088F086E090E03BD6643171058105910535
:1005400008F4DFC088B5815088BD86E090E011D600
:1005500081E0E2C01092DE061092DD0681E0809319
:1005600001028091DC068111CEC04098D5C08091F7
:100570000102813011F580910002882361F08091A1
:1005800004028093B4008091020287BD86E090E06F
:10059000F0D51092000286E090E009D66C327140EE
:1005A0008105910508F4B1C0409A1092010281E0E2
:1005B0008093000286E090E0DCD5609104027091A7
:1005C0000502882777FD8095982F0E94EB8C6B01A0
:1005D0007C016C2F70E066507109882777FD80954B
:1005E000982F0E94EB8C21EE3AE744E95EE30E94EB
:1005F000DD8D20E030E040E251E40E94E88B9B0179
:10060000AC01C701B6010E94E78B0E94B88C77232A
:1006100034F586E090E0CBD56E317105810591050A
:1006200008F475C0809104029091050201969093A0
:1006300005028093040220910202309103022150AE
:10064000310930930302209302028093B400809119
:10065000020287BD86E090E08CD581E05DC0161671
:10066000170634F586E090E0A2D568327105810561
:10067000910508F44EC08091040290910502019703
:1006800090930502809304022091020230910302AC
:100690002F5F3F4F30930302209302028093B400F8
:1006A0008091020287BD86E090E063D581E034C08E
:1006B00087E993E00E94E7258DE292E00E94D92528
:1006C00087E993E00E94E72581E080930102809111
:1006D000DC06811120C040981FC081E01DC081E070
:1006E0001BC080E019C081E017C081E015C080E028
:1006F00013C081E011C081E00FC080E00DC081E037
:100700000BC081E009C080E007C081E005C081E046
:1007100003C081E001C080E0CF91FF90EF90DF90B7
:10072000CF900895CF93DF93D82FC62F2CD4892B49
:1007300009F06AD48091070290E04CD4892B09F02B
:1007400063D48D2F90E046D4892B09F05DD48C2F93
:1007500090E040D4892B09F057D456D48FE19EE421
:100760000197F1F700C00000DF91CF910895CF937A
:10077000DF93C82F08D4892B09F046D48091070253
:1007800090E028D4892B09F03FD48C2F90E022D41C
:10079000892B09F039D4F7D380910702816090E06A
:1007A00019D4892B09F030D43BD4C82FD92F2CD49D
:1007B0008FE19EE40197F1F700C000002D2F30E09B
:1007C000232B09F021D48C2FDF91CF9108956F92C4
:1007D0007F928F929F92AF92BF92CF92DF92EF92D1
:1007E000FF920F931F93CF93DF93CDB7DEB7182FF0
:1007F000A62E6DB67EB6262F30E0220F331F8DB7A2
:100800009EB7821B930B0FB6F8949EBF0FBE8DBF91
:10081000EDB7FEB731964F01B6D3892B09F0F4D36B
:100820008091070290E0D6D3892B09F0EDD3812F78
:1008300090E0D0D3892B09F0E7D3A5D380910702AC
:10084000816090E0C7D3892B09F0DED3B12CF1E0B1
:10085000AF1AB1081A141B04B4F48401E12CF12C72
:10086000F3D3F801808391830E5F1F4FC92ED92ED9
:10087000DD0CDD08CD2809F0C7D3FFEFEF1AFF0A22
:10088000EA14FB046CF3CCD3292FF501EE0FFF1F04
:10089000E80DF91D80839183822F922F990F990B78
:1008A000892B09F0B1D360E070E0F401728180819E
:1008B0009181682B792B882777FD8095982F0E944E
:1008C000EB8C20E030E040E85DE30E94DD8D60933A
:1008D000F8067093F9068093FA069093FB0680E081
:1008E00090E0F401968124813581822B932B9C0129
:1008F000992314F4215F3F4F35952795359527951A
:1009000035952795359527952093FD0680E090E055
:10091000F401928520853185822B932B9C019923AC
:1009200014F4215F3F4F35952795359527953595DB
:100930002795359527952093FC060FB6F8947EBE33
:100940000FBE6DBEDF91CF911F910F91FF90EF9081
:10095000DF90CF90BF90AF909F908F907F906F90DF
:100960000895CF92DF92EF92FF920F931F93CF9350
:10097000DF93CDB7DEB72C970FB6F894DEBF0FBE6E
:10098000CDBF182F00D3892B09F03ED380910702E9
:1009900090E020D3892B09F037D3812F90E01AD330
:1009A000892B09F031D3EFD280910702816090E06A
:1009B00011D3892BB9F128D335C046D3F8018083F0
:1009C00091830E5F1F4FE92EF92EFF0CFF08EF28D1
:1009D00009F01AD30C151D0581F722D3292F822F78
:1009E000922F990F990B892B09F00ED380E090E09C
:1009F0009F816D817E81682B792B882777FD80957B
:100A0000982F0E94EB8C20E030E048EC52E40E94EA
:100A1000508C6093F4067093F5068093F6069093DD
:100A2000F70608C08E010F5F1F4F6E01FBE0CF0E6F
:100A3000D11CC3CF2C960FB6F894DEBF0FBECDBF2E
:100A4000DF91CF911F910F91FF90EF90DF90CF90AA
:100A50000895682F8DE366DE2FEF86E791E0215041
:100A600080409040E1F700C00000089580E07FDE04
:100A7000803A69F02FEF83ED90E321508040904061
:100A8000E1F700C0000080E072DE803A79F580E096
:100A9000E0DF61E08FE346DE2FEF83ED90E321504E
:100AA00080409040E1F700C0000086E360DE8F30B8
:100AB00001F560E08EE336DE8FE39CE90197F1F704
:100AC00000C0000060E087E02DDE62E08BE32ADEFC
:100AD00088E0BFDF9FEF29EF80E091502040804009
:100AE000E1F700C0000081E090E0089580E090E030
:100AF000089580E090E00895B3D2B8DF892B59F0D3
:100B00002FEF80E792E0215080409040E1F700C055
:100B1000000080E0089581E0089566E08AE157DEF4
:100B20008091F8069091F906A091FA06B091FB0623
:100B30008093F0069093F106A093F206B093F3062B
:100B4000089566E08AE143DE8091FC068093EF061B
:100B500008958F929F92AF92BF92CF92DF92EF92C1
:100B6000FF92CF93C82F66E08AE131DEC11137C012
:100B7000C090F806D090F906E090FA06F090FB06D7
:100B80008090F0069090F106A090F206B090F306E7
:100B9000A5019401C701B6010E94D98D88233CF0BC
:100BA000A5019401C701B6010E94E78B59C0A501B8
:100BB0009401C701B6010E944C8C88230CF045C0FB
:100BC000A501940160E070E084EB93E40E94E78B60
:100BD0009B01AC01C701B6010E94E88B41C0C13046
:100BE000C1F5C090F806D090F906E090FA06F090B2
:100BF000FB068090F0069090F106A090F206B0906F
:100C0000F306A5019401C701B6010E944C8C181689
:100C10003CF0A7019601C501B4010E94E78B20C0FA
:100C2000A5019401C701B6010E94D98D1816ACF434
:100C300020E030E044EB53E4C501B4010E94E88BAE
:100C4000A70196010E94E78B0BC060E070E0CB012A
:100C500007C060E070E0CB0103C060E070E0CB0152
:100C6000CF91FF90EF90DF90CF90BF90AF909F908B
:100C70008F90089566E08AE1AADD8091FC0690914C
:100C8000EF06891B08958F929F92AF92BF92CF92E9
:100C9000DF92EF92FF920F931F93CF93DF9388E23F
:100CA00060DE8090F4069090F506A090F606B09075
:100CB000F70620E030E0A901C501B4010E94D98DFA
:100CC0001816BCF42091E7063091E8064091E90639
:100CD0005091EA06C501B4010E94D98D18164CF452
:100CE0008092E7069092E806A092E906B092EA06A2
:100CF0001FC020E030E0A901C501B4010E944C8C66
:100D00008823B4F42091E3063091E4064091E5068F
:100D10005091E606C501B4010E944C8C882344F42E
:100D20008092E3069092E406A092E506B092E60671
:100D30002091EB063091EC064091ED065091EE06C5
:100D4000C501B4010E94DD8D20E030E0A9010E94C0
:100D50004C8C18160CF486C0C090E306D090E406C4
:100D6000E090E506F090E60620E030E0A901C7013A
:100D7000B6010E944C8C882371F0E091E106F0915D
:100D8000E206EE0FFF1FEE0FFF1FE35EF74FC0827C
:100D9000D182E282F382C090E706D090E806E0902C
:100DA000E906F090EA0620E030E0A901C701B601AB
:100DB0000E944C8C882371F0E091E106F091E206EC
:100DC000EE0FFF1FEE0FFF1FEB50F84FC082D182D6
:100DD000E282F3821092E7061092E8061092E9068A
:100DE0001092EA061092E3061092E4061092E506CD
:100DF0001092E6068091E1069091E20601968A3013
:100E0000910529F09093E2068093E10604C01092C8
:100E1000E2061092E106C5EFD7E00DE118E00F2ED3
:100E2000FDE1EF2EF8E0FF2EF02DDD24D394C12C50
:100E30006991799189919991F8012191319141912B
:100E400051918F010E94E78B20E030E040E050E4B8
:100E50000E944C8C88230CF4DC2CCE15DF0541F766
:100E6000D09206028092EB069092EC06A092ED06DC
:100E7000B092EE0680910602DF91CF911F910F9103
:100E8000FF90EF90DF90CF90BF90AF909F908F90AA
:100E900008957093960860939508909398088093AE
:100EA00097080895E0919508F09196084081518146
:100EB0006281738124E0829FC0011124FC01EB5BFD
:100EC000F74F4083518362837383E0919708F091D9
:100ED00098084081518162817381FC01E359F74F89
:100EE000408351836283738308950F931F93E0912E
:100EF0009708F091980804E0809FC0011124DC015C
:100F0000A359B74F40815181628173818D919D9129
:100F10000D90BC91A02D8A019B01081B190B2A0B77
:100F20003B0BC901B8010E94EB8C2CED3BE244EB7A
:100F30005CE30E94DD8D1F910F910895F999FECF1A
:100F400092BD81BD60BDFA9AF99A0895F999FECFD4
:100F500092BD81BD81E08FBB80B50895ECEBF0E0E0
:100F600080818823ECF708958091B900887F8830CC
:100F700041F09091B900987F81E0903119F480E0C0
:100F8000089580E00895ECEBF0E08081846A80832E
:100F9000E5DFEADF21E030E0811102C020E030E04F
:100FA000C90108959091B900987F81E0983109F4C2
:100FB00080E008959091B900987F81E0903409F421
:100FC00080E008959091B900987F81E0983209F40B
:100FD00080E008958093BB0084E88093BC00BEDF6E
:100FE000F1DF882359F0DEDF882359F0E3DF21E0C9
:100FF00090E0811101C020E0822F089580E090E010
:10100000089580E090E0089584E98093BC000895FD
:101010009091B900987F81E0983509F480E00895B7
:1010200084E88093BC009ADFF3DF2091BB0030E0BE
:10103000A901582BCA0108959091B900987F81E0C9
:10104000903509F480E0089584EC8093BC0086DF3D
:10105000F3DF2091BB0030E0A901582BCA010895AD
:101060001092B90088E48093B800089581B181B9E5
:101070008AB18AB98DB18DB98EB180638EB98BB1C9
:101080008C608BB9E9E6F0E08081806F8083EAE6CE
:10109000F0E080818F6080838DB38C638DBB83EFA4
:1010A00091E09093990080939800E0E9F0E08081CE
:1010B0008083E1E9F0E080818860808382E0809332
:1010C000710080818160808308951F920F920FB616
:1010D0000F9211248F939F93AF93BF9380919908A0
:1010E00090919A08A0919B08B0919C080196A11D2F
:1010F000B11D8093990890939A08A0939B08B09390
:101100009C08BF91AF919F918F910F900FBE0F9050
:101110001F90189580ED97E0909329018093280106
:10112000E0E2F1E080818083E1E2F1E080818860AB
:10113000808382E080937300808182608083EDE908
:10114000F8E085EF98E010821182128213821482F7
:101150001582168217823896E817F907A1F70895C5
:101160006091990870919A0880919B0890919C08D1
:101170000895880F991F880F991F880F991FFC01E8
:10118000E356F74F4091990850919A0860919B0857
:1011900070919C08408351836283738341E050E0E7
:1011A00060E070E0448355836683778308950F93EE
:1011B0001F93FC01EE0FFF1FEE0FFF1FEE0FFF1F2F
:1011C000E356F74F4481558166817781413051055F
:1011D00061057105F1F4FC01EE0FFF1FEE0FFF1F1B
:1011E000EE0FFF1FE356F74F4091990850919A0870
:1011F00060919B0870919C0880819181A281B3814C
:101200008A019B01081B190B2A0B3B0BC901B80172
:1012100004C060E472E48FE090E01F910F910895A4
:101220004F925F926F927F928F929F92AF92BF92F6
:10123000CF92DF92EF92FF920F931F93CF93DF93A2
:10124000CDB7DEB728970FB6F894DEBF0FBECDBF7F
:101250002B013C0149015A01E982FA820B831C836C
:1012600020E030E040E050ECC501B4010E94D98D8F
:1012700018160CF05DC120E030E040E050E4C501FC
:10128000B4010E944C8C88230CF052C120E030E065
:10129000A901C501B4010E944C8C882309F448C1FE
:1012A000A3019201C501B4010E94E78B4B015C01CF
:1012B00020E030E046E153E40E94DD8D2B013C014B
:1012C00060932E0770932F07809330079093310718
:1012D00020913607309137074091380750913907F0
:1012E000C501B4010E94E78B20E030E040EE50E4FD
:1012F0000E94DD8DA80197010E94508C6D837E8332
:101300008F83988760932A0770932B0780932C070D
:1013100090932D078092360790923707A092380756
:10132000B0923907A8019701C801B7010E94E88B64
:10133000A50194010E94DD8D209126073091270799
:1013400040912807509129070E94E88B4B015C01CE
:1013500060932607709327078093280790932907A7
:1013600020E030E048E453E4C301B2010E94D98D8B
:1013700018166CF480E090E0A8E4B3E480932E07A4
:1013800090932F07A0933007B09331071CC020E043
:1013900030E048E453EC60912E0770912F07809164
:1013A0003007909131070E944C8C882364F480E0D0
:1013B00090E0A8E4B3EC80932E0790932F07A093BE
:1013C0003007B09331072AE939E949E15EE3C50105
:1013D000B4010E94D98D18166CF48AE999E9A9E143
:1013E000BEE38093260790932707A0932807B09326
:1013F00029071CC02AE939E949E15EEB609126071B
:101400007091270780912807909129070E944C8CA2
:10141000882364F48AE999E9A9E1BEEB8093260761
:1014200090932707A0932807B093290720E030E086
:101430004AEF53E46D817E818F8198850E94D98D1A
:1014400018166CF480E090E0AAEFB3E480932A07CA
:1014500090932B07A0932C07B0932D071CC020E07E
:1014600030E04AEF53EC60912A0770912B0780918E
:101470002C0790912D070E944C8C882364F480E007
:1014800090E0AAEFB3EC80932A0790932B07A093E8
:101490002C07B0932D0720912A0730912B074091FC
:1014A0002C0750912D0760912E0770912F07809186
:1014B0003007909131070E94E88B209126073091E8
:1014C000270740912807509129070E94E88B4B017C
:1014D0005C01B601882777FD8095982F0E94EB8CE0
:1014E0009B01AC01C501B4010E94E88B4B015C017A
:1014F00060933207709333078093340790933507D6
:1015000020E030EC4FE754E40E94D98D1816B4F077
:1015100020E030EC4FE754ECC501B4010E944C8C44
:1015200088237CF0C501B4010E94B88CCB010BC0AC
:10153000C501B4010E94B88CCB0105C08FEF93E0C8
:1015400002C081E09CEF28960FB6F894DEBF0FBE74
:10155000CDBFDF91CF911F910F91FF90EF90DF9062
:10156000CF90BF90AF909F908F907F906F905F9043
:101570004F9008954F925F926F927F928F929F92B9
:10158000AF92BF92CF92DF92EF92FF920F931F9391
:10159000CF93DF93CDB7DEB728970FB6F894DEBFB1
:1015A0000FBECDBF2B013C0149015A01E982FA82ED
:1015B0000B831C8320E030E040E050ECC501B40117
:1015C0000E94D98D18160CF05DC120E030E040E09B
:1015D00050E4C501B4010E944C8C88230CF052C128
:1015E00020E030E0A901C501B4010E944C8C8823A1
:1015F00009F448C1A3019201C501B4010E94E78B1F
:101600004B015C0120E030E046E153E40E94DD8DB7
:101610002B013C0160931A0770931B0780931C07F2
:1016200090931D07209122073091230740912407B2
:1016300050912507C501B4010E94E78B20E030E0FE
:1016400040EE50E40E94DD8DA80197010E94508C6D
:101650006D837E838F839887609316077093170737
:10166000809318079093190780922207909223077E
:10167000A0922407B0922507A8019701C801B701DD
:101680000E94E88BA50194010E94DD8D2091120734
:101690003091130740911407509115070E94E88B71
:1016A0004B015C016093120770931307809314073A
:1016B0009093150720E030E048E453E4C301B20101
:1016C0000E94D98D18166CF480E090E0A8E4B3E491
:1016D00080931A0790931B07A0931C07B0931D07D4
:1016E0001CC020E030E048E453EC60911A07709190
:1016F0001B0780911C0790911D070E944C8C88232A
:1017000064F480E090E0A8E4B3EC80931A0790932F
:101710001B07A0931C07B0931D072AE939E949E18B
:101720005EE3C501B4010E94D98D18166CF48AE9F4
:1017300099E9A9E1BEE38093120790931307A09360
:101740001407B09315071CC02AE939E949E15EEB9B
:1017500060911207709113078091140790911507FB
:101760000E944C8C882364F48AE999E9A9E1BEEBD4
:101770008093120790931307A0931407B093150753
:1017800020E030E04AEF53E46D817E818F819885BF
:101790000E94D98D18166CF480E090E0AAEFB3E4B3
:1017A0008093160790931707A0931807B093190713
:1017B0001CC020E030E04AEF53EC609116077091B6
:1017C000170780911807909119070E944C8C882365
:1017D00064F480E090E0AAEFB3EC80931607909356
:1017E0001707A0931807B093190720911607309197
:1017F0001707409118075091190760911A077091C7
:101800001B0780911C0790911D070E94E88B209177
:1018100012073091130740911407509115070E9449
:10182000E88B4B015C01B601882777FD8095982FE6
:101830000E94EB8C9B01AC01C501B4010E94E88BB6
:101840004B015C0160931E0770931F078093200774
:101850009093210720E030EC4FE754E40E94D98DAB
:101860001816B4F020E030EC4FE754ECC501B40199
:101870000E944C8C88237CF0C501B4010E94B88C76
:10188000CB010BC0C501B4010E94B88CCB0105C0CF
:101890008FEF93E002C081E09CEF28960FB6F8949A
:1018A000DEBF0FBECDBFDF91CF911F910F91FF9093
:1018B000EF90DF90CF90BF90AF909F908F907F90F0
:1018C0006F905F904F9008954F925F926F927F92CA
:1018D0008F929F92AF92BF92CF92DF92EF92FF9240
:1018E0000F931F93CF93DF93CDB7DEB728970FB633
:1018F000F894DEBF0FBECDBF2B013C0149015A0158
:10190000E982FA820B831C8320E030E040E050EC57
:10191000C501B4010E94D98D18160CF05DC120E0FC
:1019200030E040E050E4C501B4010E944C8C8823B3
:101930000CF052C120E030E0A901C501B4010E94C1
:101940004C8C882309F448C1A3019201C501B4015C
:101950000E94E78B4B015C0120E030E046E153E45C
:101960000E94DD8D2B013C016093060770930707F1
:10197000809308079093090720910E0730910F0775
:101980004091100750911107C501B4010E94E78BE7
:1019900020E030E040EE50E40E94DD8DA801970188
:1019A0000E94508C6D837E838F839887609302079B
:1019B00070930307809304079093050780920E07A6
:1019C00090920F07A0921007B0921107A8019701FB
:1019D000C801B7010E94E88BA50194010E94DD8D2A
:1019E0002091FE063091FF064091000750910107BB
:1019F0000E94E88B4B015C016093FE067093FF062A
:101A0000809300079093010720E030E048E453E41E
:101A1000C301B2010E94D98D18166CF480E090E0E9
:101A2000A8E4B3E48093060790930707A093080700
:101A3000B09309071CC020E030E048E453EC60910B
:101A400006077091070780910807909109070E9487
:101A50004C8C882364F480E090E0A8E4B3EC80939D
:101A6000060790930707A0930807B09309072AE990
:101A700039E949E15EE3C501B4010E94D98D181628
:101A80006CF48AE999E9A9E1BEE38093FE0690939C
:101A9000FF06A0930007B09301071CC02AE939E9AB
:101AA00049E15EEB6091FE067091FF0680910007B0
:101AB000909101070E944C8C882364F48AE999E98B
:101AC000A9E1BEEB8093FE069093FF06A09300076A
:101AD000B093010720E030E04AEF53E46D817E814E
:101AE0008F8198850E94D98D18166CF480E090E063
:101AF000AAEFB3E48093020790930307A09304072F
:101B0000B09305071CC020E030E04AEF53EC609131
:101B100002077091030780910407909105070E94C6
:101B20004C8C882364F480E090E0AAEFB3EC8093BF
:101B3000020790930307A0930407B0930507209131
:101B40000207309103074091040750910507609107
:101B500006077091070780910807909109070E9476
:101B6000E88B2091FE063091FF06409100075091CE
:101B700001070E94E88B4B015C01B601882777FDC5
:101B80008095982F0E94EB8C9B01AC01C501B4019C
:101B90000E94E88B4B015C0160930A0770930B076E
:101BA00080930C0790930D0720E030EC4FE754E44E
:101BB0000E94D98D1816B4F020E030EC4FE754ECB9
:101BC000C501B4010E944C8C88237CF0C501B4018E
:101BD0000E94B88CCB010BC0C501B4010E94B88C27
:101BE000CB0105C08FEF93E002C081E09CEF289607
:101BF0000FB6F894DEBF0FBECDBFDF91CF911F911E
:101C00000F91FF90EF90DF90CF90BF90AF909F909B
:101C10008F907F906F905F904F9008954F925F925A
:101C20006F927F928F929F92AF92BF92CF92DF92EC
:101C3000EF92FF920F931F93CF93DF93CDB7DEB751
:101C400028970FB6F894DEBF0FBECDBF2B013C0125
:101C500049015A01E982FA820B831C8320E030E0BB
:101C600040E050ECC501B4010E94D98D18160CF06B
:101C70005DC120E030E040E050E4C501B4010E94C5
:101C80004C8C88230CF052C120E030E0A901C50142
:101C9000B4010E944C8C882309F448C1A30192012D
:101CA000C501B4010E94E78B4B015C0120E030E0EC
:101CB00046E153E40E94DD8D2B013C016093420715
:101CC00070934307809344079093450720914A07F8
:101CD00030914B0740914C0750914D07C501B4011D
:101CE0000E94E78B20E030E040EE50E40E94DD8D62
:101CF000A80197010E94508C6D837E838F83988703
:101D000060933E0770933F0780934007909341078D
:101D100080924A0790924B07A0924C07B0924D07D1
:101D2000A8019701C801B7010E94E88BA5019401A1
:101D30000E94DD8D20913A0730913B0740913C078E
:101D400050913D070E94E88B4B015C0160933A077C
:101D500070933B0780933C0790933D0720E030E071
:101D600048E453E4C301B2010E94D98D18166CF403
:101D700080E090E0A8E4B3E48093420790934307A7
:101D8000A0934407B09345071CC020E030E048E42E
:101D900053EC609142077091430780914407909102
:101DA00045070E944C8C882364F480E090E0A8E40E
:101DB000B3EC8093420790934307A0934407B093FA
:101DC00045072AE939E949E15EE3C501B4010E940A
:101DD000D98D18166CF48AE999E9A9E1BEE38093DC
:101DE0003A0790933B07A0933C07B0933D071CC074
:101DF0002AE939E949E15EEB60913A0770913B07C6
:101E000080913C0790913D070E944C8C882364F49C
:101E10008AE999E9A9E1BEEB80933A0790933B07E1
:101E2000A0933C07B0933D0720E030E04AEF53E435
:101E30006D817E818F8198850E94D98D18166CF4F2
:101E400080E090E0AAEFB3E480933E0790933F07D1
:101E5000A0934007B09341071CC020E030E04AEF58
:101E600053EC60913E0770913F078091400790913D
:101E700041070E944C8C882364F480E090E0AAEF34
:101E8000B3EC80933E0790933F07A0934007B09335
:101E9000410720913E0730913F0740914007509104
:101EA00041076091420770914307809144079091E8
:101EB00045070E94E88B20913A0730913B074091FB
:101EC0003C0750913D070E94E88B4B015C01B60135
:101ED000882777FD8095982F0E94EB8C9B01AC01A1
:101EE000C501B4010E94E88B4B015C016093460779
:101EF00070934707809348079093490720E030ECA0
:101F00004FE754E40E94D98D1816B4F020E030EC6D
:101F10004FE754ECC501B4010E944C8C88237CF03F
:101F2000C501B4010E94B88CCB010BC0C501B4013E
:101F30000E94B88CCB0105C08FEF93E002C081E016
:101F40009CEF28960FB6F894DEBF0FBECDBFDF9191
:101F5000CF911F910F91FF90EF90DF90CF90BF90A6
:101F6000AF909F908F907F906F905F904F9008956B
:101F700060915E0770915F078091600790916107A3
:101F80000895609162077091630780916407909152
:101F9000650708958F929F92AF92BF92CF92DF9282
:101FA000EF92FF927C0190915C0780915D079813FE
:101FB00089C0E114F10429F025E0E216F10461F092
:101FC00014C010925D0710925B0781E080935A075E
:101FD00086E60E94992572C080E00E945207809197
:101FE0005D078F5F80935D0769C0C7018456994183
:101FF000893E934008F058C080E00E9475074B016D
:102000005C01B70168557B41882777FD8095982F43
:102010000E94EB8C6B017C019B01AC01C501B401FA
:102020000E944C8C8823FCF41092530710925207A4
:1020300080E00E9475074B015C0120E030E040E247
:1020400051E4C701B6010E94508C9B01AC01C5014F
:10205000B4010E94D98D18168CF580915D078F5FB1
:1020600080935D072BC084E398E09093530780939F
:10207000520780E00E9475074B015C0120E030E0D0
:1020800040E251E4C701B6010E94508C9B01AC01B3
:10209000C501B4010E944C8C882384F480915D07B3
:1020A0008F5F80935D070AC0C7018A539141853BCA
:1020B000910520F4F0925307E092520787E993E0EC
:1020C0000E94E72580915C078F5F80935C07FF90FB
:1020D000EF90DF90CF90BF90AF909F908F9008953A
:1020E000823010F480935B0780915B0708954F92D4
:1020F0005F926F927F928F929F92AF92BF92CF9298
:10210000DF92EF92FF921F93CF93DF9300D01F9245
:10211000CDB7DEB76B017C0149015A0120E030E008
:10212000A9010E944C8C882309F450C18091540766
:10213000811135C120E030E0A901C701B6010E943C
:102140004C8C182F111F1127111F812F0E94A905D8
:102150002B013C0120E030E0A901C701B6010E943B
:10216000D98D1816ACF420E030E047E853E4C30101
:10217000B2010E94D98D181644F5A301920160E0C6
:1021800070E084EB93E40E94E78B2B013C011DC0BF
:1021900020E030E047E853E4C301B2010E94D98D4A
:1021A00018167CF4A301920160E070E084EB93E4E4
:1021B0000E94E78B2B013C0177FA709477F87094BA
:1021C00004C077FA709477F87094A3019201C70164
:1021D000B6010E94E78B2B013C0120E030E040EF8C
:1021E00051E4C501B4010E94508CA30192010E94E8
:1021F000DD8D69837A838B839C8320E030E0A901A5
:10220000C301B2010E94D98D18162CF42DEC3CECC0
:102210004CE45EE304C02DEC3CEC4CE45EEB6981E5
:102220007A818B819C810E94E88B69837A838B837E
:102230009C839B01AC01C501B4010E944C8C882396
:102240004CF480924E0790924F07A0925007B092A4
:10225000510723C0B7FAB094B7F8B094A501940120
:1022600069817A818B819C810E944C8C88236CF0DF
:1022700089819A81AB81BC8180934E0790934F07EF
:10228000A0935007B093510708C080924E079092D8
:102290004F07A0925007B092510720E030E0A9010B
:1022A000C701B6010E94D98D1816ECF42DEC3CEC58
:1022B0004CE45EE360914E0770914F0780915007A8
:1022C000909151070E944C8C88236CF44DEC5CEC8F
:1022D0006CE47EE340934E0750934F0760935007A2
:1022E0007093510727C01123E1F02DEC3CEC4CE436
:1022F0005EEB60914E0770914F078091500790916F
:1023000051070E94D98D181664F44DEC5CEC6CE416
:102310007EEB40934E0750934F07609350077093A6
:10232000510720E030E0A901C701B6010E94D98D14
:10233000181654F42DEC3CEC4CEC5EEBC301B201EE
:102340000E944C8C18166CF4112309F442C02DEC39
:102350003CEC4CEC5EE3C301B2010E94D98D8823B2
:10236000C4F120E030E040E05FEB60914E077091F7
:102370004F0780915007909151070E94DD8D609327
:102380004E0770934F07809350079093510788E052
:1023900090E00E94B90881E0809354071AC088E059
:1023A00090E00E94D708693171058105910588F098
:1023B00010924E0710924F0710925007109251073B
:1023C00081E0809368071092540703C081E08093F6
:1023D00068070F900F900F900F90DF91CF911F9192
:1023E000FF90EF90DF90CF90BF90AF909F908F9035
:1023F0007F906F905F904F900895EF92FF920F93B0
:102400001F93CF93DF93EC01F62E8C01805A9F40EF
:10241000883E934008F00AC780910802813009F095
:102420000DC761110BC780916907811105C00E941A
:102430008D0581E080936907BE0164597141882749
:1024400077FD8095982F0E94EB8C20E030E040E0F3
:102450005FE34DDE40914E0750914F07609150076A
:102460007091510740935E0750935F076093600738
:1024700070936107705840936207509363076093AD
:1024800064077093650780916807813009F0D6C6AC
:1024900086E40E94992510926907109268071092AD
:1024A0000802CCC680910802813009F01EC4F110E8
:1024B0001CC48091690781110AC00E948D0581E0CA
:1024C000809369078093560780E00E943B01C536E0
:1024D00089E1D8076CF180915607882309F453C02D
:1024E000BE0168517A41882777FD8095982F0E9418
:1024F000EB8C20E030E040E05FE3F9DD80914E07B7
:1025000090914F07A0915007B091510780935E07BB
:1025100090935F07A0936007B0936107B0588093D2
:10252000620790936307A0936407B09365072BC07D
:1025300080915607882339F1BE01605B7841882776
:1025400077FD8095982F0E94EB8C20E030E040E0F2
:102550005FE3CDDD80914E0790914F07A09150072A
:10256000B091510780935E0790935F07A093600737
:10257000B0936107B0588093620790936307A0936C
:102580006407B093650780916807811107C0C8315F
:102590009AE1D90719F0C03BD84159F48091560708
:1025A000882339F081E080935907109268071092D0
:1025B0005607809159078823F9F082E00E943B0179
:1025C00081E00E9452071092590781E080935807DA
:1025D00080E090E0A0E0BFE3809362079093630700
:1025E000A0936407B093650780935E0790935F079D
:1025F000A0936007B093610781E00E94750720E017
:1026000030E040E051E40E94D98D8823D4F08091DD
:1026100058078823B1F01092580710925E07109265
:102620005F07109260071092610710926207109284
:102630006307109264071092650781E08093570743
:1026400004C080915707882359F081E00E943B0124
:102650000E948D051092570781E08093550705C0B1
:1026600080915507882309F4F0C523E333E343E35E
:102670005FE360E070E084E393E439DD80914E072E
:1026800090914F07A0915007B091510780935E073A
:1026900090935F07A0936007B0936107B058809351
:1026A000620790936307A0936407B09365078091D6
:1026B0005507882309F4C9C580916807882309F460
:1026C000C4C51092570710926907109256071092CE
:1026D00068071092550710925907109258071092E8
:1026E00062071092630710926407109265071092B8
:1026F0005E0710925F07109260071092610786E4F0
:102700000E9499251092080283E00E943B019DC51A
:10271000F110EBC281E080930802C43388E0D8074F
:1027200009F4FEC084F4CC3424E0D20709F46CC070
:10273000C03D87E0D80709F4B8C0C83E93E0D90788
:1027400009F046C110C0C83B2BE0D20709F40EC106
:10275000CC318CE0D80709F422C1C83998E0D907F8
:1027600009F036C1F2C080916B07811120C081E071
:1027700080936B0789E090E00E94B90880E090E0C8
:10278000A0E0BFE38093620790936307A093640780
:10279000B093650780E090E0A0E0BFEB80935E0718
:1027A00090935F07A0936007B09361074EC589E0DF
:1027B00090E00E94D708623C71408105910568F065
:1027C00080E090E0A0E0BFEB809362079093630706
:1027D000A0936407B093650738C589E090E00E9434
:1027E000D708683C71058105910508F42EC580E085
:1027F00090E0A0E0BFE380935E0790935F07A09313
:102800006007B093610721C580916B07811120C0DB
:1028100081E080936B0789E090E00E94B90880E036
:1028200090E0A0E0BFEB8093620790936307A093D2
:102830006407B093650780E090E0A0E0BFE3809379
:102840005E0790935F07A0936007B0936107FDC494
:1028500089E090E00E94D708623C714081059105B3
:1028600068F080E090E0A0E0BFEB80935E0790937B
:102870005F07A0936007B0936107E7C489E090E029
:102880000E94D708683C71058105910508F4DDC4F4
:1028900080E090E0A0E0BFE380936207909363073D
:1028A000A0936407B0936507D0C480916A07811133
:1028B0001CC081E080936A0788E090E00E94B9081C
:1028C00080E090E0A0E0BFEB809362079093630705
:1028D000A0936407B093650780935E0790935F07AA
:1028E000A0936007B0936107B0C488E090E00E94B5
:1028F000D708643271058105910508F4A6C41092C9
:102900006207109263071092640710926507109295
:102910005E0710925F07109260071092610795C4DE
:1029200080E090E0A0E0BFEB8093620790936307A4
:10293000A0936407B093650780935E0790935F0749
:10294000A0936007B093610780C410926207109251
:102950006307109264071092650710925E07109249
:102960005F0710926007109261076FC480E090E0EB
:10297000A0E0BFEB8093620790936307A093640786
:10298000B093650780E090E0A0E0BFE380935E072E
:1029900090935F07A0936007B093610756C480E0EF
:1029A00090E0A0E0BFE38093620790936307A09359
:1029B0006407B093650780E090E0A0E0BFEB8093F0
:1029C0005E0790935F07A0936007B09361073DC4D3
:1029D00010926B0710926A0780915A07813019F4A0
:1029E000DD2384F409C0823021F41C161D0624F076
:1029F0000CC08150823010F410925A0700381140F8
:102A000010F505C0C0E0D0E002C0C0E0D0E0BE01DB
:102A1000882777FD8095982F0E94EB8C2AEE38E767
:102A20004CE45AE30E94DD8D20E030E040E05FE3BB
:102A30000E94E88B60937007709371078093720710
:102A4000909373073BC0C1389EEFD907BCF1CC39D6
:102A50002FEFD207E4F0BE01882777FD8095982FED
:102A60000E94EB8C2AE037ED43EA5BE30E94DD8DA8
:102A700020E030E040E05FE30E94E88B6093700765
:102A800070937107809372079093730717C0BE010C
:102A90006C597F4F882777FD8095982F0E94EB8C8B
:102AA00024E330E847E35BE30E94DD8D6093700729
:102AB000709371078093720790937307E09070078B
:102AC000F090710700917207109173072AE939E9B4
:102AD00049ED5FE36E2D7F2D802F912F0E94D98DC0
:102AE00018168CF02AE939E949ED5FEB6E2D7F2D40
:102AF000802F912F0E944C8C882354F43AE929E9C5
:102B000009ED1FEB07C03AE929E909ED1FE302C00F
:102B10003E2D2F2D832F922FA02FB12F80935E0754
:102B200090935F07A0936007B09361070027112778
:102B30000C1B1D0B003881E01807E0F4B801882752
:102B400077FD8095982F0E94EB8C2AEE38E74CE4B5
:102B50005AE30E94DD8D20E030E040E05FE30E9418
:102B6000E88B60936C0770936D0780936E0790936A
:102B70006F0785C0C80181589E4F8F3F9240C8F5AE
:102B80000C398FEF1807E4F0B801882777FD80959E
:102B9000982F0E94EB8C2AE037ED43EA5BE30E941A
:102BA000DD8D20E030E040E05FE30E94E88B609341
:102BB0006C0770936D0780936E0790936F075FC0EB
:102BC00064E670E06C1B7D0B882777FD8095982F5D
:102BD0000E94EB8C24E330E847E35BE30E94DD8D49
:102BE00060936C0770936D0780936E0790936F07E7
:102BF00046C085E392E00E94E72560E080E090E037
:102C00000E949E078FE99FE00197F1F700C0000046
:102C10001016110664F461E080E090E00E949E07C7
:102C20008FE99FE00197F1F700C000000CC060E061
:102C300080E090E00E949E078FE99FE00197F1F706
:102C400000C000008E01612F81E090E00E949E078D
:102C50008FE99FE00197F1F700C00000602F82E04C
:102C600090E00E949E078FE99FE00197F1F700C076
:102C7000000088279927801B910B0E946B260091EA
:102C80006C0710916D07D0916E07C0916F072AE90C
:102C900039E949ED5FE3602F712F8D2F9C2F0E9442
:102CA000D98D18168CF02AE939E949ED5FEB602FD0
:102CB000712F8D2F9C2F0E944C8C88234CF40AE995
:102CC00019E9D9EDCFEB04C00AE919E9D9EDCFE351
:102CD000802F912FAD2FBC2F8093620790936307B5
:102CE000A0936407B0936507B0C292E0F912EBC0FD
:102CF00081E08093080286E40E94992510926B0778
:102D000010926A07DD23E4F0BE01882777FD8095E5
:102D1000982F0E94EB8C23ED39ED49E45AE30E9491
:102D2000DD8D2DEC3CEC4CEC5EE30E94E88B609377
:102D300070077093710780937207909373071BC09D
:102D4000BE01882777FD8095982F0E94EB8C2CE69A
:102D500039E049E75BE30E94DD8D2DEC3CEC4CEC67
:102D60005EE30E94E88B6093700770937107809315
:102D7000720790937307E0907007F09071070091CD
:102D80007207109173072AE939E949ED5FE36E2D67
:102D90007F2D802F912F0E94D98D18168CF02AE953
:102DA00039E949ED5FEB6E2D7F2D802F912F0E9429
:102DB0004C8C882354F49AE989E909ED1FEB07C08C
:102DC0009AE989E909ED1FE302C09E2D8F2D492F55
:102DD000582F602F712F40935E0750935F076093C9
:102DE000600770936107662777276C1B7D0BDAF00D
:102DF000882777FD8095982F0E94EB8C23ED39ED85
:102E000049E45AE30E94DD8D2DEC3CEC4CEC5EE392
:102E10000E94E88B60936C0770936D0780936E0738
:102E200090936F071AC0882777FD8095982F0E948E
:102E3000EB8C2CE639E049E75BE30E94DD8D2DEC5D
:102E40003CEC4CEC5EE30E94E88B60936C07709363
:102E50006D0780936E0790936F0700916C07109138
:102E60006D07D0916E07C0916F072AE939E949EDE6
:102E70005FE3602F712F8D2F9C2F0E94D98D181624
:102E80008CF02AE939E949ED5FEB602F712F8D2F26
:102E90009C2F0E944C8C88234CF40AE919E9D9ED47
:102EA000CFEB04C00AE919E9D9EDCFE3802F912FC8
:102EB000AD2FBC2F8093620790936307A0936407A4
:102EC000B0936507C2C121E0F212BFC181E08093D7
:102ED000080210926B0710926A070E944306811144
:102EE000B1C0809167078111CCC0DD23E4F0BE0141
:102EF000882777FD8095982F0E94EB8C2AEE38E783
:102F00004CE45AE30E94DD8D20E030E040E05FE3D6
:102F10000E94E88B6093700770937107809372072B
:102F20009093730737C0CC398FEFD807E4F0BE0118
:102F3000882777FD8095982F0E94EB8C2AE037ED4B
:102F400043EA5BE30E94DD8D20E030E040E05FE398
:102F50000E94E88B609370077093710780937207EB
:102F60009093730717C0BE016C597F4F882777FD78
:102F70008095982F0E94EB8C24E330E847E35BE3D5
:102F80000E94DD8D609370077093710780937207C4
:102F900090937307662777276C1B7D0BDAF08827E1
:102FA00077FD8095982F0E94EB8C2AEE38E74CE451
:102FB0005AE30E94DD8D20E030E040E05FE30E94B4
:102FC000E88B60936C0770936D0780936E07909306
:102FD0006F07C1C06C399FEF7907DCF0882777FD58
:102FE0008095982F0E94EB8C2AE037ED43EA5BE353
:102FF0000E94DD8D20E030E040E05FE30E94E88B3E
:1030000060936C0770936D0780936E0790936F07C2
:10301000A2C064E670E06C1B7D0B882777FD80956D
:10302000982F0E94EB8C24E330E847E35BE30E9497
:10303000DD8D60936C0770936D0780936E0790939E
:103040006F0789C08091670781111BC087E090E0FE
:103050000E94B9088AE999E9A9E9BEEB80936C0757
:1030600090936D07A0936E07B0936F0780937007DE
:1030700090937107A0937207B093730781E08093D8
:10308000670787E090E00E94D708693F724081059A
:103090009105E0F180916607811138C087E090E0EA
:1030A0000E94D7080E94E98C9B01AC010E94DD8D33
:1030B00020E030E040EF52E40E94DD8D60936C0729
:1030C00070936D0780936E0790936F0787E090E091
:1030D0000E94D7080E94E98C9B01AC010E94DD8D03
:1030E00020E030E040EF52E40E94DD8D60937007F5
:1030F00070937107809372079093730781E08093B8
:10310000660787E090E00E94B90825C087E090E05C
:103110000E94D7086039714081059105E0F08091E7
:1031200066078823C1F080E090E0A0E0BFE38093D1
:103130006C0790936D07A0936E07B0936F07809311
:10314000700790937107A0937207B0937307109262
:1031500066071092670700916C0710916D07D09178
:103160006E07C0916F072AE939E949ED5FE3602FE7
:10317000712F8D2F9C2F0E94D98D18168CF02AE963
:1031800039E949ED5FEB602F712F8D2F9C2F0E9445
:103190004C8C88234CF40AE919E9D9EDCFEB04C033
:1031A0000AE919E9D9EDCFE3802F912FAD2FBC2F7C
:1031B0008093620790936307A0936407B0936507B9
:1031C0000091700710917107D0917207C091730739
:1031D0002AE939E949ED5FE3602F712F8D2F9C2F8C
:1031E0000E94D98D18168CF02AE939E949ED5FEB78
:1031F000602F712F8D2F9C2F0E944C8C88234CF4B4
:103200000AE919E9D9EDCFEB04C00AE919E9D9EDCA
:10321000CFE3802F912FAD2FBC2F80935E0790932B
:103220005F07A0936007B09361070FC0CE0180577E
:103230009741883E934008F435C96ACA0057174140
:10324000083E134008F42EC950CDDF91CF911F9155
:103250000F91FF90EF90089580915207909153073E
:10326000805A9F40883E934008F041C08091690792
:10327000811105C00E948D0581E0809369076091EE
:1032800052077091530764597141882777FD8095E3
:10329000982F0E94EB8C20E030E040E05FE30E943A
:1032A000771080914E0790914F07A0915007B091F1
:1032B000510780935E0790935F07A0936007B093D8
:1032C0006107B0588093620790936307A0936407E7
:1032D000B093650780916807813049F410926907BF
:1032E0001092680780915D078F5F80935D078091E2
:1032F000520790915307843328E09207A9F480E0A5
:1033000090E0A0E0BFEB8093620790936307A093E7
:103310006407B093650780935E0790935F07A0935F
:103320006007B09361070895892BA1F480E090E0D5
:10333000A0E0BFE380935E0790935F07A0936007D0
:10334000B09361078093620790936307A09364072B
:10335000B0936507089581113BC085E492E00E9417
:10336000E72582E080935A0710925C0785E090E0A1
:103370000E94CA0F84EF9AE10E94CA0F80ED91E18A
:103380000E94CA0F85E090E00E94CA0F84E39CE18E
:103390000E94CA0F88E591E10E94CA0F85E090E083
:1033A0000E94CA0F8EE39CE10E94CA0F8EE491E155
:1033B0000E94CA0F85E090E00E94CA0F8AE89BE154
:1033C0000E94CA0F80E090E00E94CA0F45CF089586
:1033D00080E592E00E94E72581E080935A071092F1
:1033E0005C0785E090E00E94CA0F84EF9AE10E949A
:1033F000CA0F88E591E10E94CA0F85E090E00E9423
:10340000CA0F84E39CE10E94CA0F80ED91E10E9403
:10341000CA0F85E090E00E94CA0F8EE39CE10E94F3
:10342000CA0F8AED91E10E94CA0F85E090E00E94E8
:10343000CA0F8AE89BE10E94CA0F80E090E00E94D8
:10344000CA0F0ACF0895CF93DF93EC01805A9F40B3
:10345000883E9340E8F580916907811105C00E947C
:103460008D0581E080936907BE0164597141882709
:1034700077FD8095982F0E94EB8C20E030E040E0B3
:103480005FE30E94771080914E0790914F07A091C3
:103490005007B091510780935E0790935F07A09308
:1034A0006007B0936107B0588093620790936307F9
:1034B000A0936407B093650780916807813009F095
:1034C00068C10E949A26109269071092680761C12C
:1034D000C83988E0D80709F4C2C0A4F4C03D87E029
:1034E000D80751F12CF4C83ED34009F452C139C178
:1034F000C23028E0D20709F45EC0C433D84009F4D2
:1035000099C02FC1C0382CE0D20709F4EBC054F4A5
:10351000C83B2BE0D20709F4B3C0CC31DC4009F43E
:10352000C8C01FC1C43E2CE0D20709F4F0C0C834A3
:10353000DD4009F401C115C180916A0781111CC0E9
:1035400081E080936A0788E090E00E94B90880E0FB
:1035500090E0A0E0BFEB8093620790936307A09395
:103560006407B093650780935E0790935F07A0930D
:103570006007B09361070DC188E090E00E94D70812
:10358000643271058105910508F403C11092620748
:1035900010926307109264071092650710925E07FD
:1035A00010925F07109260071092610710926A07ED
:1035B0000E949A26EEC080916A0781111CC081E0AA
:1035C00080936A0788E090E00E94B90880E090E06C
:1035D000A0E0BFE38093620790936307A093640722
:1035E000B093650780935E0790935F07A093600791
:1035F000B0936107CEC088E090E00E94D7086432A3
:1036000071058105910508F4C4C0109262071092FB
:103610006307109264071092650710925E0710927C
:103620005F07109260071092610710926A070E946C
:103630009A26AFC08DEC9CECACE4BFEB80936207A4
:1036400090936307A0936407B093650780935E0728
:1036500090935F07A0936007B09361079AC01092A0
:103660006207109263071092640710926507109228
:103670005E0710925F07109260071092610789C081
:1036800080E090E0A0E0BFEB809362079093630737
:10369000A0936407B093650780E090E0A0E0BFE3EB
:1036A00080935E0790935F07A0936007B0936107D4
:1036B00070C080E090E0A0E0BFE380936207909349
:1036C0006307A0936407B093650780E090E0A0E0F3
:1036D000BFEB80935E0790935F07A0936007B09362
:1036E000610757C083E393E3A3EBBFE380935E07D7
:1036F00090935F07A0936007B09361078093620780
:1037000090936307A0936407B093650742C080E07D
:1037100090E0AAE2B3E480935E0790935F07A093E2
:103720006007B09361078093620790936307A0934B
:103730006407B09365072DC08DEC9CECACECBEE348
:103740008093620790936307A0936407B093650723
:1037500080935E0790935F07A0936007B093610723
:1037600018C010926B0710926A078DEC9CECACE4C9
:10377000BFE380935E0790935F07A0936007B093C9
:1037800061078093620790936307A0936407B093E7
:103790006507DF91CF9108951F920F920FB60F9298
:1037A00011248F939F938091BA078F5F8093BA07FC
:1037B000813069F480919400909195009093A207D4
:1037C0008093A1071092AE071092AD0720C08430FD
:1037D000F0F08430D1F4079B02C081E001C08FEF8C
:1037E00080930F0280919400909195009093A4078C
:1037F0008093A3078091AD079091AE079093A607A1
:103800008093A50781E080938D071092BA079F915E
:103810008F910F900FBE0F901F9018951F920F92CF
:103820000FB60F9211244F935F936F937F938F93F3
:103830009F93AF93BF9380910B02992787FD90953B
:10384000A92FB92F4091AF075091B0076091B107F0
:103850007091B207840F951FA61FB71F8093AF0703
:103860009093B007A093B107B093B207059902C037
:1038700081E001C08FEF80930B028091B9078F5FC9
:103880008093B907813069F48091940090919500FC
:1038900090939C0780939B071092AC071092AB0704
:1038A00020C08430F0F08430D1F4059902C081E06A
:1038B00001C08FEF80930E0280919400909195004B
:1038C00090939E0780939D078091AB079091AC07E2
:1038D0009093A00780939F0781E080938E071092BA
:1038E000B907BF91AF919F918F917F916F915F9138
:1038F0004F910F900FBE0F901F9018951F920F922F
:103900000FB60F9211248F939F938091B8078F5F0A
:103910008093B807813069F480919400909195006C
:1039200090939607809395071092AA071092A90783
:1039300020C08430F0F08430D1F4069902C081E0D8
:1039400001C08FEF80930D028091940090919500BB
:1039500090939807809397078091A9079091AA0761
:1039600090939A078093990781E080938C07109237
:10397000B8079F918F910F900FBE0F901F901895D1
:103980001F920F920FB60F9211244F935F936F9374
:103990007F938F939F93AF93BF9380910A02992750
:1039A00087FD9095A92FB92F4091B3075091B40787
:1039B0006091B5077091B607840F951FA61FB71FBA
:1039C0008093B3079093B407A093B507B093B6075D
:1039D000049B02C081E001C08FEF80930A028091B6
:1039E000B7078F5F8093B707813069F480919400A7
:1039F000909195009093900780938F071092A8075D
:103A00001092A70720C08430F0F08430D1F4049BDA
:103A100002C081E001C08FEF80930C02809194007E
:103A20009091950090939207809391078091A707BA
:103A30009091A807909394078093930781E08093D7
:103A40008B071092B707BF91AF919F918F917F9194
:103A50006F915F914F910F900FBE0F901F9018952F
:103A60001F920F920FB60F9211248F939F93809104
:103A7000AD079091AE0701969093AE078093AD0786
:103A80008091AB079091AC0701969093AC0780931F
:103A9000AB078091A9079091AA0701969093AA0776
:103AA0008093A9078091A7079091A807019690930A
:103AB000A8078093A7079F918F910F900FBE0F903B
:103AC0001F9018952F923F924F925F926F927F9224
:103AD0008F929F92AF92BF92CF92DF92EF92FF921E
:103AE0000F931F93CF93DF9300D01F92CDB7DEB714
:103AF00080918D07882309F467C060910F027727B2
:103B000067FD7095872F972F0E94EB8C69837A83CE
:103B10008B839C838091A5079091A6071C01282F79
:103B2000332D40E050E060E070E080E090E006E09F
:103B30000E94688EA22CB32CC12CD12CE12CF12C2C
:103B400000E010E00E948A8E01E00E94688E00E092
:103B50000E948A8E02E00E94688E00E00E948A8E97
:103B6000E091A107F091A2071F01AE2EB32C0E9495
:103B70008A8EE091A307F091A4071F01AE2EB32C0B
:103B80000E94818E0E94268D20E030E044E050E4C7
:103B90000E94DD8D9B01AC0160E070E583EC97E451
:103BA0000E94508C9B01AC0169817A818B819C8140
:103BB0000E94DD8D60938707709388078093890743
:103BC00090938A0710928D0780918E07882309F4BD
:103BD00067C060910E02772767FD7095872F972F3A
:103BE0000E94EB8C69837A838B839C8380919F07EF
:103BF0009091A0071C01282F332D40E050E060E099
:103C000070E080E090E006E00E94688EA22CB32C69
:103C1000C12CD12CE12CF12C00E010E00E948A8E06
:103C200001E00E94688E00E00E948A8E02E00E94FD
:103C3000688E00E00E948A8EE0919B07F0919C07BD
:103C40001F01AE2EB32C0E948A8EE0919D07F09149
:103C50009E071F01AE2EB32C0E94818E0E94268DDE
:103C600020E030E044E050E40E94DD8D9B01AC0197
:103C700060E070E583EC97E40E94508C9B01AC01FE
:103C800069817A818B819C810E94DD8D609383079D
:103C900070938407809385079093860710928E0710
:103CA00080918C07882309F467C060910D02772703
:103CB00067FD7095872F972F0E94EB8C69837A831D
:103CC0008B839C838091990790919A071C01282FE0
:103CD000332D40E050E060E070E080E090E006E0EE
:103CE0000E94688EA22CB32CC12CD12CE12CF12C7B
:103CF00000E010E00E948A8E01E00E94688E00E0E1
:103D00000E948A8E02E00E94688E00E00E948A8EE5
:103D1000E0919507F09196071F01AE2EB32C0E94FB
:103D20008A8EE0919707F09198071F01AE2EB32C71
:103D30000E94818E0E94268D20E030E044E050E415
:103D40000E94DD8D9B01AC0160E070E583EC97E49F
:103D50000E94508C9B01AC0169817A818B819C818E
:103D60000E94DD8D60937F077093800780938107A9
:103D70009093820710928C0780918B07882309F417
:103D800067C060910C02772767FD7095872F972F8A
:103D90000E94EB8C69837A838B839C838091930749
:103DA000909194071C01282F332D40E050E060E0F3
:103DB00070E080E090E006E00E94688EA22CB32CB8
:103DC000C12CD12CE12CF12C00E010E00E948A8E55
:103DD00001E00E94688E00E00E948A8E02E00E944C
:103DE000688E00E00E948A8EE0918F07F091900724
:103DF0001F01AE2EB32C0E948A8EE0919107F091A4
:103E000092071F01AE2EB32C0E94818E0E94268D38
:103E100020E030E044E050E40E94DD8D9B01AC01E5
:103E200060E070E583EC97E40E94508C9B01AC014C
:103E300069817A818B819C810E94DD8D60937B07F3
:103E400070937C0780937D0790937E0710928B0779
:103E500082E090E00E94D7082B013C0182E04816E6
:103E600051040CF46EC08091780790917907EBDAD9
:103E7000C0900009D0900109B201882777FD809594
:103E8000982F0E94EB8C20E030E04AE754E40E9437
:103E9000508C2B013C010E94B80F9B01AC0160913A
:103EA000830770918407809185079091860783012D
:103EB00072010E9410096EEF78E0D4D5C090040919
:103EC000D09005090E94C10F9B01AC0160917B0756
:103ED00070917C0780917D0790917E070E94BA0ABD
:103EE0006EEF78E0CFD5C090FE08D090FF080E941A
:103EF000C10F9B01AC016091870770918807809189
:103F0000890790918A070E94640C6EEF78E0CAD509
:103F1000C0900209D09003090E94B80F9B01AC0128
:103F200060917F077091800780918107909182074F
:103F30000E940E0E6EEF78E0C5D582E090E00E9400
:103F4000B9080F900F900F900F90DF91CF911F91B4
:103F50000F91FF90EF90DF90CF90BF90AF909F9028
:103F60008F907F906F905F904F903F902F9008952B
:103F7000CF93DF9300D01F92CDB7DEB788E090E0FB
:103F8000B9D581E090E0C7D588E090E0DAD50F2E72
:103F9000F5E0CF2ED12CF02D8CE6CBD521E0C21A46
:103FA000D108C114D104C1F70F2EF5E0CF2ED12CCA
:103FB000F02D8AE6BED581E0C81AD108C114D1041B
:103FC000C1F70E948A08F5D4FFD41BD529D500D5A6
:103FD00012D52CD53ED50E9436080E94C6000E94FC
:103FE0007C050E944B8B789482E090E00E94B90897
:103FF00083E090E00E94B90881E090E00E94A6076B
:10400000D82E82E090E00E94A6072D2D30E0322FBE
:1040100022276901C82A80E090E00E94A60781302B
:1040200019F4D194C194D108AFE9BFE01197F1F729
:1040300000C000008BE592E0BCD5C6014CD687E9F4
:1040400093E0C5D581E090E00E94B9080E94A105E7
:104050006FEA77E083EB97E00E94490780E00E94D7
:1040600052078AE090E00E94B908109279071092F6
:10407000780781E0809307091092060994D680E0C2
:104080000E94520781E00E946501BFEFE3EDF0E37B
:10409000B150E040F040E1F700C0000080E00E9435
:1040A000650162D5A7C280917407811104C088E7B9
:1040B00097E09FD510C086E797E09BD58091760763
:1040C0009091770780329E4431F48AE692E07FD562
:1040D00081E0809306098AE090E00E94D70861336E
:1040E00075478105910540F08AE090E00E94B9088B
:1040F00080E00E9465010CC08AE090E00E94D70831
:10410000693674478105910518F081E00E946501C8
:1041100080918D07882309F467C060910F0277278B
:1041200067FD7095872F972F0E94EB8C69837A83A8
:104130008B839C83E5EAF7E0808191811C01282F25
:10414000332D40E050E060E070E080E090E006E079
:104150000E94688EA22CB32CC12CD12CE12CF12C06
:1041600000E010E00E948A8E01E00E94688E00E06C
:104170000E948A8E02E00E94688E00E00E948A8E71
:10418000A1EAB7E0ED91FC911F01AE2EB32C0E9485
:104190008A8EA3EAB7E0ED91FC911F01AE2EB32CFD
:1041A0000E94818E0E94268D20E030E044E050E4A1
:1041B0000E94DD8D9B01AC0160E070E583EC97E42B
:1041C0000E94508C9B01AC0169817A818B819C811A
:1041D0000E94DD8D6093870770938807809389071D
:1041E00090938A0710928D0780918E07882309F497
:1041F00067C060910E02772767FD7095872F972F14
:104200000E94EB8C69837A838B839C83EFE9F7E0D0
:10421000808191811C01282F332D40E050E060E027
:1042200070E080E090E006E00E94688EA22CB32C43
:10423000C12CD12CE12CF12C00E010E00E948A8EE0
:1042400001E00E94688E00E00E948A8E02E00E94D7
:10425000688E00E00E948A8EABE9B7E0ED91FC9198
:104260001F01AE2EB32C0E948A8EADE9B7E0ED910E
:10427000FC911F01AE2EB32C0E94818E0E94268DD0
:1042800020E030E044E050E40E94DD8D9B01AC0171
:1042900060E070E583EC97E40E94508C9B01AC01D8
:1042A00069817A818B819C810E94DD8D6093830777
:1042B00070938407809385079093860710928E07EA
:1042C00080918C07882309F467C060910D027727DD
:1042D00067FD7095872F972F0E94EB8C69837A83F7
:1042E0008B839C83E9E9F7E0808191811C01282F71
:1042F000332D40E050E060E070E080E090E006E0C8
:104300000E94688EA22CB32CC12CD12CE12CF12C54
:1043100000E010E00E948A8E01E00E94688E00E0BA
:104320000E948A8E02E00E94688E00E00E948A8EBF
:10433000A5E9B7E0ED91FC911F01AE2EB32C0E94D0
:104340008A8EA7E9B7E0ED91FC911F01AE2EB32C48
:104350000E94818E0E94268D20E030E044E050E4EF
:104360000E94DD8D9B01AC0160E070E583EC97E479
:104370000E94508C9B01AC0169817A818B819C8168
:104380000E94DD8D60937F07709380078093810783
:104390009093820710928C0780918B07882309F4F1
:1043A00067C060910C02772767FD7095872F972F64
:1043B0000E94EB8C69837A838B839C83E3E9F7E02B
:1043C000808191811C01282F332D40E050E060E076
:1043D00070E080E090E006E00E94688EA22CB32C92
:1043E000C12CD12CE12CF12C00E010E00E948A8E2F
:1043F00001E00E94688E00E00E948A8E02E00E9426
:10440000688E00E00E948A8EAFE8B7E0ED91FC91E3
:104410001F01AE2EB32C0E948A8EA1E9B7E0ED9168
:10442000FC911F01AE2EB32C0E94818E0E94268D1E
:1044300020E030E044E050E40E94DD8D9B01AC01BF
:1044400060E070E583EC97E40E94508C9B01AC0126
:1044500069817A818B819C810E94DD8D60937B07CD
:1044600070937C0780937D0790937E0710928B0753
:104470000E943A06863F24F482E080937A070AC0BD
:104480000E943A068B3024F081E080937A0702C0C4
:1044900010927A070E942401882331F183E090E092
:1044A0000E94D708613177428105910520F48091FF
:1044B00009028823C9F0809175078F5F8093750783
:1044C0008A3090F08AE792E074D383E732D3E0ED4C
:1044D000F7E0F0937907E093780781E08093740721
:1044E00010920902109275070E94FC00811104C00D
:1044F0000E940301882329F081E00E94701089E660
:1045000018D382E090E00E94D708623071058105DF
:10451000910508F46FC082E00E947010811109C0FB
:1045200060917A0780917807909179070E94FD1138
:1045300003C081E00E94AB19C0900009D09001092E
:104540000E94B80F9B01AC016091830770918407B2
:1045500080918507909186071FE6E12E12E1F12EEA
:1045600003E01BE30E9410096EEF78E07BD2C0905D
:104570000409D09005090E94C10F9B01AC01609114
:104580007B0770917C0780917D0790917E070E9448
:10459000BA0A6EEF78E076D2C090FE08D090FF089D
:1045A0000E94C10F9B01AC01609187077091880741
:1045B0008091890790918A070E94640C6EEF78E0E1
:1045C00071D2C0900209D09003090E94B80F9B01DC
:1045D000AC0160917F077091800780918107909175
:1045E00082070E940E0E6EEF78E06CD282E090E0BF
:1045F0000E94B90880910609882309F454CDB4D2E9
:10460000CDC186E892E0E3D2E0910709F0E0E7301F
:10461000F10508F0C3C1EE58FF4F0C94538E82E0B1
:1046200090E00E94B90883E090E00E94B908D4D3DA
:1046300031C00E94C74479D390937907809378075B
:1046400041DA0E942401882319F183E090E00E945E
:10465000D7086131774281059105D0F080917507C7
:104660008F5F809375078A30A8F08CE662D2109233
:104670000609109274071092790710927807109229
:10468000070983E090E00E94B9081092750702C004
:1046900010927507809106098111CBCF7FC182E00E
:1046A00090E00E94B90883E090E00E94B90894D39A
:1046B00031C00E94AD5039D3909379078093780729
:1046C00001DA0E942401882319F183E090E00E941E
:1046D000D7086131774281059105D0F08091750747
:1046E0008F5F809375078A30A8F08CE622D21092F3
:1046F00006091092740710927907109278071092A9
:10470000070983E090E00E94B9081092750702C083
:1047100010927507809106098111CBCF3FC182E0CD
:1047200090E00E94B90883E090E00E94B90854D359
:1047300031C00E94945CF9D29093790780937807F6
:10474000C1D90E942401882319F183E090E00E94DE
:10475000D7086131774281059105D0F080917507C6
:104760008F5F809375078A30A8F08CE6E2D11092B3
:104770000609109274071092790710927807109228
:10478000070983E090E00E94B9081092750702C003
:1047900010927507809106098111CBCFFFC082E08E
:1047A00090E00E94B90883E090E00E94B90814D319
:1047B00031C00E949064B9D29093790780937807B2
:1047C00081D90E942401882319F183E090E00E949E
:1047D000D7086131774281059105D0F08091750746
:1047E0008F5F809375078A30A8F08CE6A2D1109273
:1047F00006091092740710927907109278071092A8
:10480000070983E090E00E94B9081092750702C082
:1048100010927507809106098111CBCFBFC082E04D
:1048200090E00E94B90883E090E00E94B908D4D2D9
:1048300031C00E94607F79D2909379078093780786
:1048400041D90E942401882319F183E090E00E945D
:10485000D7086131774281059105D0F080917507C5
:104860008F5F809375078A30A8F08CE662D1109232
:104870000609109274071092790710927807109227
:10488000070983E090E00E94B9081092750702C002
:1048900010927507809106098111CBCF7FC082E00D
:1048A00090E00E94B90883E090E00E94B90894D299
:1048B00031C00E948C6C39D290937907809378072D
:1048C00001D90E942401882319F183E090E00E941D
:1048D000D7086131774281059105D0F08091750745
:1048E0008F5F809375078A30A8F08CE622D11092F2
:1048F00006091092740710927907109278071092A7
:10490000070983E090E00E94B9081092750702C081
:1049100010927507809106098111CBCF3FC082E0CC
:1049200090E00E94B90883E090E00E94B90854D258
:1049300031C00E94F675F9D190937907809378077A
:10494000C1D80E942401882319F183E090E00E94DD
:10495000D7086131774281059105D0F080917507C4
:104960008F5F809375078A30A8F08CE6E2D01092B2
:104970000609109274071092790710927807109226
:10498000070983E090E00E94B9081092750702C001
:1049900010927507809106098111CBCF809106098D
:1049A00081112FCE88E998E090937907809378075A
:1049B00078CB279A9D9A84B5836084BD85B585BDE3
:1049C00084B5806A84BD089585B5856085BD0895E8
:1049D000E1E0F1E0808180648083249AE0EBF0E004
:1049E000808183608083A1EBB0E08C918C93808187
:1049F000806A80830895E1EBF0E0808187608083A6
:104A00000895259AE0E8F0E0808183608083A1E842
:104A1000B0E08C9188608C938081806A8083089557
:104A2000E1E8F0E08081836080830895E1E0F1E0D7
:104A3000808188638083E0EAF0E080818360808306
:104A4000A1EAB0E08C9188608C938081886A808331
:104A5000089581B18F6081B9E1EAF0E080818360DF
:104A600080830895FB019383828399232CF4139A06
:104A700091958195910901C013989093A900809315
:104A8000A8000895FB019783868399232CF4129A3A
:104A900091958195910901C012989093AB008093F4
:104AA000AA000895FB019183808399232CF4119A25
:104AB00091958195910901C011989093AD008093D3
:104AC000AC000895FB019583848399232CF4109AFC
:104AD00091958195910901C01098909389008093D8
:104AE00088000895E0ECF0E0908195FFFDCF809381
:104AF000C60008959093C5008093C40088E1809318
:104B0000C10086E08093C20080E192E090930D099D
:104B100080930C090895909335018093340188E1C6
:104B20008093310186E2809332012798269A2F9A4A
:104B30000895E0E3F1E0908195FFFDCF8093360189
:104B400008959093D5008093D40088E18093D1009C
:104B500086E08093D2000895E0EDF0E0908195FF2B
:104B6000FDCF8093D600089580913001882344F4CE
:104B7000A6E3B1E0E0E3F1E08C9180818823E4F3E7
:104B8000089580913001882344F48091300182FDA2
:104B900007C08091360190E008958FEF9FEF089550
:104BA0008EEF9FEF08958091BB0708951092BB0789
:104BB0000895CF93DF93EC018881882329F0219613
:104BC000CBDF89918111FCCFDF91CF910895CF93F5
:104BD000DF93EC018881882329F02196BDDF89913C
:104BE0008111FCCF8AE0B8DF8DE0B6DFDF91CF9195
:104BF0000895EF92FF920F931F93CF93DF93EC01F1
:104C0000C0DF90931F0280931E028F3F2FEF920709
:104C100009F18E3FEFEF9E0759F0E091BD07F0914B
:104C2000BE07EE0FFF1FE154F84F9183808308C049
:104C30008091BC078F5F8093BC078FE892E0B9DF5B
:104C40002091BD073091BE072F5F3F4F3093BE07C5
:104C50002093BD072091BD073091BE07223031055A
:104C600099F58091BC0781111FC001EC17E080E02D
:104C700090E0F80190810F2EFFEBEF2EF7E0FF2E72
:104C8000F02DF70120813181822B932B998388832A
:104C90006BDFF70111821082F801118210821092ED
:104CA000BE071092BD0710C05FDF83E992E081DF8D
:104CB00087E993E08CDF1092BC071092BE07109238
:104CC000BD0781E08093BB07DF91CF911F910F91CA
:104CD000FF90EF9008950F931F93CF93DF93CDB77D
:104CE000DEB7A1970FB6F894DEBF0FBECDBFBC01F3
:104CF0008E010F5F1F4F81E2F80111928A95E9F74B
:104D0000882777FD8095982F2AE0A8010E94A78E1A
:104D1000C8014FDFA1960FB6F894DEBF0FBECDBF1E
:104D2000DF91CF911F910F9108958091F30790919A
:104D3000F4070895E091CB07F0E0EE0FFF1FEB5270
:104D4000F84F8081918101969183808388EE93E072
:104D50009093F4078093F30787E993E038DF8CE9B9
:104D600092E027DF8091D5079091D607B4DF88E6DF
:104D700095E01FDF8091D7079091D807ACDF88E6D8
:104D800095E017DF8091D9079091DA07A4DF88E6D4
:104D900095E00FDF8091DB079091DC079CDF87E9CE
:104DA00093E015CF08956091ED0785E090E00E94B3
:104DB0009E076091EC0789E090E00E949E07609159
:104DC000270287E090E00E949E076091280286E01B
:104DD00090E00C949E07089585E090E00E94A6075D
:104DE0008093ED0789E090E00E94A6078093EC078E
:104DF00086E090E00E94A6078093280287E090E07A
:104E00000E94A6078093270283EA92E0D2DE809177
:104E1000ED0790E060DF81EB92E0CBDE8091EC0764
:104E200090E059DF81EC92E0C4DE8091270299275F
:104E300087FD909550DF86ED92E0BBDE80912802E1
:104E4000992787FD909547DF87E993E0C0CE0895C5
:104E50008F929F92AF92BF92CF92DF92EF92FF928A
:104E6000CF93DF93EC018091CD079091CE0733DF94
:104E700088E695E09EDE8091CF079091D0072BDFEA
:104E800088E695E096DE8091D1079091D20723DFE6
:104E900088E695E08EDE8091D3079091D4071BDFE2
:104EA00086E993E086DE8091CC078093CB07CB32F6
:104EB000D10508F03BC5FE01E758FF4F0C94538E17
:104EC0008BEA93E076DE88E492E19093F407809396
:104ED000F30788C68EEE92E06CDE8AE391E1909350
:104EE000F4078093F3077EC683EF92E062DE8EEED6
:104EF00091E19093F4078093F30774C688EF92E0F2
:104F000058DE81EC91E19093F4078093F3076AC631
:104F10008DEF92E04EDE87E691E19093F407809367
:104F2000F30760C682E093E044DE84E398E0909368
:104F3000F4078093F3070E940F018823F1F00E9489
:104F400009018823D1F08091F007811108C080E029
:104F500090E00E94B90881E08093F00743C680E0AA
:104F600090E00E94D708643671058105910508F428
:104F700039C6E0DE1092F00735C60E940F01882383
:104F800049F08CE19CE09093F4078093F307109232
:104F9000F00728C60E940901882349F088EB9BE0AE
:104FA0009093F4078093F3071092F0071BC61092BA
:104FB000F00718C68FE093E0FCDD80ED97E090935A
:104FC000F4078093F3070EC684E193E0F2DD82E0FC
:104FD00098E09093F4078093F30704C68DE193E083
:104FE000E8DD88E998E09093F4078093F307A2DE68
:104FF000F9C586E293E0DDDD80E00E9452079ADE8B
:10500000F1C585E393E0D5DD81E08093E50788E98C
:1050100098E09093F4078093F3078CDEE3C58EE26B
:1050200093E0C7DD1092E50788E998E09093F407D4
:105030008093F3077FDED6C582E493E0BADDD0E04B
:10504000C0E00E94D48B843110F4DF5F01C0CF5FD9
:105050008D2F90E08C0F911D05979CF3C53018F0B3
:105060001092290203C081E08093290263DE88E95F
:1050700098E09093F4078093F307B4C584E593E038
:1050800098DD8EEF90E09093210280932002909320
:105090002302809322024EDEA5C58BE593E089DDD5
:1050A00081E08093E40746DE9DC58CE693E081DDD8
:1050B0001092E4073FDE96C58BE793E07ADD80919E
:1050C000E107843024F48091280218162CF0809196
:1050D000E407882309F4B7C08091EA07823011F011
:1050E000843019F482E625DD02C081E622DD84E009
:1050F00090E00E94B90813C082E292E07ADD53DDAD
:10510000882321F085E615DD2FDD50DD84E090E079
:105110000E94D708653C79408105910538F480915B
:105120002202909123028E3F910531F384E601DD46
:1051300084E090E00E94B90813C080E292E059DD5B
:1051400032DD882321F085E6F4DC0EDD2FDD84E0FE
:1051500090E00E94D708653C79408105910538F4BC
:1051600080912002909121028E3F910531F38DE6CE
:10517000E0DC80912202909123029C012C5F3F4F42
:105180002930310530F08F3F910529F48EEF90E002
:1051900002C080E090E0909323028093220220914D
:1051A0002002309121022F3F310519F44EEF20E00B
:1051B00002C0422F232F40932002209321022091EE
:1051C000CA072A3029F43091EA073130D9F406C0F1
:1051D0002436E9F43091EA073530D9F4883F3FEFBF
:1051E000930774F430910909313051F488EF9FEF3F
:1051F000909323028093220281E08093C90723C009
:105200002A3029F42091EA072530D9F406C0243643
:10521000C1F42091EA072130A1F4893091058CF086
:105220008E3F910571F080910909813051F488E039
:1052300090E0909323028093220281E08093C9073B
:1052400002C01092C90788E998E09093F407809310
:10525000F30770DDC7C489E893E0ABDC8091E10718
:10526000843024F48091270218162CF08091E407F2
:10527000882309F4B7C08091EA07823011F08430A6
:1052800019F48FE656DC02C08EE653DC84E090E031
:105290000E94B90813C082E292E0ABDC84DC882370
:1052A00021F085E646DC60DC81DC84E090E00E9451
:1052B000D708653C79408105910538F48091220238
:1052C000909123028E3F910531F384E632DC84E035
:1052D00090E00E94B90813C080E292E08ADC63DCAF
:1052E000882321F085E625DC3FDC60DC84E090E06B
:1052F0000E94D708653C79408105910538F480917A
:105300002002909121028E3F910531F38DE611DC50
:1053100080912202909123029C012C5F3F4F293003
:10532000310530F08F3F910529F48EEF90E002C0F7
:1053300080E090E09093230280932202209120024B
:10534000309121022F3F310519F44EEF20E002C0C9
:10535000422F232F40932002209321022091CA073D
:105360002A3029F43091EA073130D9F406C02436C6
:10537000E9F43091EA073530D9F4883F3FEF9307DD
:1053800074F430910909313051F488EF9FEF909314
:1053900023028093220281E08093C90723C02A3030
:1053A00029F42091EA072530D9F406C02436C1F447
:1053B0002091EA072130A1F4893091058CF08E3FCD
:1053C000910571F080910909813051F488E090E0F5
:1053D000909323028093220281E08093C90702C048
:1053E0001092C90788E998E09093F4078093F30737
:1053F000A1DCF8C388E993E0DCDB0E94D48B91E068
:105400009093EB07823808F495DC0E942A01811101
:1054100004C00E943001882321F081E08093E807D6
:1054200089DC8091C907882339F088E49DE0909356
:10543000F4078093F307D6C384EE9CE09093F407BF
:105440008093F307CFC38EE993E0B3DB109225027C
:1054500071DCC8C38FEA93E0ACDB80E00E94750783
:1054600020E030E040E251E40E94DD8D6093DD07F2
:105470007093DE078093DF079093E0075BDCB2C395
:1054800084E593E096DB8EEF90E090932102809389
:105490002002909323028093220280912602882387
:1054A00031F08091280281508093280209C08091B8
:1054B000E607882329F080912702815080932702F4
:1054C0008091E1078F5F8093E10734DC8BC387EB2A
:1054D00093E06FDB1092F4071092F3070E9416011D
:1054E0008823F1F00E941D018823D1F08091F007FC
:1054F000811108C080E090E00E94B90881E08093AB
:10550000F00770C380E090E00E94D7086436710510
:105510008105910508F466C30DDC1092F00762C3A3
:105520000E941601882349F088EB9BE09093F407D2
:105530008093F3071092F00755C30E941D01882342
:1055400049F08CE19CE09093F4078093F30710926C
:10555000F00748C31092F00745C386EC93E029DBBF
:105560008091ED07811110922B02E4DB3BC38CED9F
:1055700093E01FDB8091E107843084F4809128025E
:10558000811104C080912602813041F08091270270
:10559000811106C08091E607813011F410922A0231
:1055A000C9DB20C381EF93E004DB8091E3078F5FC9
:1055B0008093E3071092D6071092D5071092D80770
:1055C0001092D7071092DA071092D9071092DC07D1
:1055D0001092DB0707C382E094E0EBDA1092F40745
:1055E0001092F3070E941601811105C00E941D014F
:1055F000882309F4F7C29EDB88E998E09093F407CA
:105600008093F307EFC287E194E0D3DA84E398E074
:105610009093F4078093F3070E940F01882361F0B1
:105620000E940901882341F085DB88E998E0909386
:10563000F4078093F307D6C20E940F01882339F044
:105640008CE19CE09093F4078093F307CBC20E9417
:105650000901882309F4C6C288EB9BE09093F40704
:105660008093F307BFC28BE294E0A3DA1092E107C4
:1056700081E08093EF0780932A021092EE075ADBB5
:10568000B1C28BE394E095DAD0E0C0E00E94D48B05
:10569000843138F499271FDB81E494E098DADF5FE6
:1056A00006C0992718DB85E494E091DACF5F8D2F4F
:1056B00090E08C0F911D05974CF3C530D8F0809188
:1056C0002602882331F0809128028F5F8093280280
:1056D00009C08091E607882329F0809127028F5F17
:1056E000809327028091E10781508093E107109217
:1056F000290203C081E0809329021CDB88E998E03D
:105700009093F4078093F3076DC289E494E051DA33
:105710001092EF0788E998E09093F4078093F307DD
:1057200009DB60C28CE594E044DA8091E1078430C3
:1057300084F480912802811104C080912602813076
:1057400041F080912702811107C08091E6078130E6
:1057500019F481E08093EE0788E998E09093F407CC
:105760008093F307E7DA3EC288E998E09093F40764
:105770008093F3078DE694E01CDA0E9437018823BA
:1057800019F081E08093E707D5DA2CC280E894E035
:1057900010DA80912802811104C0809126028130A4
:1057A00021F08091EC07833050F08FE894E001DA2B
:1057B0001092EC071092260281E08093E607BADA95
:1057C00011C280912702811108C08091E6078130C3
:1057D00021F489EA94E0EDD9FFCFACDA03C280EC82
:1057E00094E0E7D98091EC078F5F8093EC078330DA
:1057F00030F08091E107181614F4109228029ADA1A
:10580000F1C18EEC94E0D5D98091EA078F5F809347
:10581000EA0790DAE7C181EE94E0CBD91092EA076B
:1058200089DAE0C185EF94E0C4D91092E80782DA02
:10583000D9C18AE095E0BDD981E0809309097ADA7F
:10584000D1C18CE195E0B5D91092090973DACAC1CA
:1058500084E395E0AED96091ED0785E090E00E9489
:105860009E076091280286E090E00E949E0760916A
:10587000270287E090E00E949E076091EC0789E094
:1058800090E00E949E0756DAADC1809124028823E1
:1058900069F085E090E00E94B9081092240210920D
:1058A000E2071092F4071092F30736C085E090E00B
:1058B0000E94D7086035710581059105A0F080919F
:1058C000E20780FD10C084E398E09093F407809392
:1058D000F30785E090E00E94B9088091E2078F5FAE
:1058E0008093E20719C00E9409018823A9F00E9451
:1058F0000F01882389F08091E20780FF0DC010928C
:10590000F4071092F30785E090E00E94B9088091B7
:10591000E2078F5F8093E2078091E2078E3008F400
:1059200061C181E08093240205DA5CC1CE01885117
:10593000954181389C4008F08DC084E495E039D9C8
:10594000C8353BE1D30771F4F5D981E08093E907CD
:105950008FE495E02ED988E998E09093F40780933E
:10596000F30740C180E00E9475074B015C01C855F8
:10597000DB41BE01882777FD8095982F0E94EB8C34
:105980006B017C019B01AC01C501B4010E944C8CF0
:1059900088230CF03FC080912A0281110FC0CB3FB9
:1059A000D10564F08091E3078150823038F480E8BB
:1059B0009CE09093F4078093F30712C0C634D1059E
:1059C0005CF48091EB07813039F484EE9CE0909395
:1059D000F4078093F30704C01092F4071092F307C2
:1059E00080E00E9475074B015C0120E030E040E25E
:1059F00051E4C701B6010E94508C9B01AC01C50166
:105A0000B4010E94D98D18160CF0ECC093D91092F5
:105A1000E907E8C084E398E09093F4078093F307E4
:105A200080E00E9475074B015C0120E030E040E21D
:105A300051E4C701B6010E94508C9B01AC01C50125
:105A4000B4010E944C8C88230CF0CCC073D9109206
:105A5000E907C8C0CE0186579141CD9740F484E54F
:105A600095E0A7D8D093F407C093F307BBC0C03E1E
:105A70008EE2D8075CF18CE595E09BD88091F20727
:105A800081110EC085E090E00E94B90881E080930A
:105A9000F20788E998E09093F4078093F307A2C097
:105AA00085E090E00E94D7089E01205E3E42690199
:105AB000EE24D7FCE094FE2C6C157D058E059F0529
:105AC00008F490C037D91092F2078CC0C93F2AE27F
:105AD000D20714F182E695E06CD886E993E069D8A4
